:04000000803119280A
:100008007E1480310B1F09280A2817282100111C8B
:100018000E280F2817282000111C13281428172829
:1000280081316D2180317E10090080311B289E307E
:100038008400813085002D308600003087000A302A
:100048008131A8218031F801F901FA01FB01203042
:100058008400003085000D308131AE2180317E1062
:100068002000813132292000BA0008303A020318F2
:100078003E283F284D280130B8003A0A4428B835B0
:10008800890B43283808AB00F030B8003808AA05B7
:100098006028AB012A08F039B9000130B8003A08E5
:1000A800F83E890A5828B835890B57283808AA0015
:1000B8003908B8003808AA0437082D3E8600870199
:1000C8000108AC000800F3007308F40081287408E4
:1000D800860087010108240091002000911D7528E1
:1000E8007628712891117408860087012400110868
:1000F80081000130F2007208F4070130F00200308C
:10010800F13B700A031D8C28710A031D8C288D2869
:100118006B280800083023009F0090309D00243091
:100128009E0040309B0003309C0000302000B70048
:100138000030B8008131C021803100302000B70084
:100148000030B8008131BA21803100302000B7007A
:100158000030B8008131C62180312000A601080096
:10016800F5007008F7007508F600CC2877088600B7
:1001780087010108F4000130F3007308F7077608D7
:1001880086008701740881000130F3007308F607C0
:100198000130F1020030F23B710A031DD728720AC0
:1001A800031DD728D828BA280800031022008D1F5D
:1001B80003140318E028E32822008D17E5282200FD
:1001C8008D132A30F0000330F1000030F2002730A0
:1001D8008031B420803122008D120330F0000030CD
:1001E800F100273080316720803122008D16080009
:1001F80022008C018D018E013F3021008C001030CF
:100208008D007F308E004D3023008E0020308D0011
:1002180017308C0024008D018C018E012100951768
:10022800843022009D009E010800200099013C3086
:100238009700B030960011101708FB001608FA0056
:1002480021001114D4302000B7000130B8008131EA
:10025800B4218131313020009800080081314921D2
:1002680081318B170B17D9302000B7000030B80048
:100278008131B421813103302000B7000B30803147
:10028800372081313F298031192881317A21813104
:100298008031FC2081318131862181318131D02129
:1002A800813181311921813180318E2081310800DD
:1002B8002000181D60296129682918107108970005
:1002C8007008960018146C29710897007008960039
:1002D8000800200011107B08F1007A08F000813135
:1002E8005C21813181319221813108004030240024
:1002F8009400023095000130920021000D13240073
:100308009516080070302100990098012200960186
:1003180021001A1F902991298C290800780879044E
:100328000319972998299D2979088A0078080A00CD
:10033800813108007D344134DC34D534E134B534BE
:10034800BD345134FD34F534FE0012001E00FE0B9E
:10035800A9290034640080010131890BAF290034D8
:1003680020003808F9003708F8000800200038088D
:10037800A3003708A200080020003808A5003708A5
:10038800A400080020003808A1003708A0000800D1
:10039800023440340134003416302100970008003C
:0203A80008004B
:020000040001F9
:04000E00E43FFF3F8D
:00000001FF
