:04000000803119280A
:100008007E1480310B1F09280A2817282100111C8B
:100018000E280F2817282000111C13281428172829
:100028008131B52180317E10090080311B28E730ED
:1000380084008130850031308600003087000B3025
:100048008131F22180312030840000308500113068
:100058008131F82180317E1020008131A529FB00F3
:100068000130FB0208307B0203183B283C284B2850
:100078000130F9007B0A4128F935890B40287908B5
:100088002000AF00F030F9007908AE055F282000A5
:10009800AF012E08F039FA000130F9007B08F83E6C
:1000A800890A5728F935890B56287908AE007A0845
:1000B800F9007908AE047808313E86008701010806
:1000C800B0002E30F0000330F1000030F2002B3089
:1000D8008131262180310800FC000130FC0220001B
:1000E8002E08F039FB007803031D7B287C288A281A
:1000F8001030F9007C0A8128F935890B80287908A5
:10010800AE007B08F9007908AE049B287808031D27
:100118008E288F289B281030F9007C0A9428F935FE
:10012800890B93287908F03AFA007A08AE052E3040
:10013800F0000330F1000030F2002B30813126212D
:100148008031080022008D12F801F80A0130803150
:1001580070208031F801F80A023080317020803137
:10016800F801F80A03308031702080310530F8003A
:1001780020003B088031332080310130FD007D08AC
:100188002000BB070D303B02031CCB28CC28CE280F
:10019800BB01BB0A0330F0000030F1002B30803186
:1001A800D920803122008D160800F3007308F4006E
:1001B800F3287408860087010108240091002000B4
:1001C800911DE728E828E328911174088600870123
:1001D8002400110881000130F2007208F407013090
:1001E800F0020030F13B700A031DFE28710A031D5E
:1001F800FE28FF28DD280800083023009F009030E3
:100208009D0024309E0040309B0003309C0000304D
:100218002000BC000030BD0082310A22813100304C
:100228002000BC000030BD00823104228131003042
:100238002000BC000030BD00823110228131200036
:10024800AA010800F7007008F6007708F5003E29B3
:100258007608860087010108F4000130F30073086E
:10026800F607750886008701740881000130F300DD
:100278007308F5070130F1020030F23B710A031DE3
:100288004929720A031D49294A292C2908002200F4
:100298008C018D018E013F3021008C0010308D00C3
:1002A8007F308E004D3023008E0020308D001730B7
:1002B8008C0024008D018C018E012100951784305B
:1002C80022009D009E01080020009901FC30970043
:1002D8001830960011101708A9001608A800210068
:1002E80011141E302000BC000230BD008131FE21F7
:1002F800813131302000980008008131CF218131CF
:1003080081314B2181318131DB21813182311A22C6
:1003180081318131682181318131002181310800A9
:100328002000181D98299929A029181071089700EC
:10033800700896001814A429710897007008960090
:1003480008008131812181318B170B17A6302000DD
:10035800BC000030BD008131FE218131B2298031DD
:100368001928200011102908F1002808F00081310F
:10037800942181318131C221813108002000260871
:1003880027040319C829C929CE2927088A0026085D
:100398000A008131080040302400940002309500A2
:1003A8000130920021000D132400951608007030CA
:1003B8002100990098012200960121001A1FE529C1
:1003C800E629E12908007D344134DC34D534E134B0
:1003D800B534BD345134FD34F5340134FE00120017
:1003E8001E00FE0BF3290034640080010131890BE3
:1003F800F929003420003D08A7003C08A6000800A1
:1004080020003D08A3003C08A200080020003D0889
:10041800A5003C08A400080020003D08A1003C08F5
:10042800A0000800023440340134003416302100A2
:0604380097000800080017
:020000040001F9
:04000E00E43FFF3F8D
:00000001FF
