:04000000803119280A
:100008007E1480310B1F09280A2817282100111C8B
:100018000E280F2817282000111C13281428172829
:1000280083318A2380317E10090080311B28C73034
:10003800840083308500CC308600003087000A3089
:100048008331FD238031F801F901FA01FB01FC013C
:10005800FD01EB01EC01ED01EE01A0308400003060
:1000680085002C308431032480317E1020008331B8
:100078003F2B20004D0886008701403FCF00413FBD
:10008800D0004F088400500885001200253A031D4F
:100098004E284F28B4284D08860087010130810773
:1000A80041310318810AF801F901031000300318DF
:1000B8000130ED00FF30EB00FF30EC004D0886000A
:1000C8008701403FD700413FD800570884005808AF
:1000D80085001200783A031D72287328AA284E0852
:1000E8008600870101088400850102308107003FEE
:1000F800D300013FD4005708013ECF000030583DDF
:10010800D0004D08860087014F08C03F5008C13F06
:1001180099284C08BE004B08BD005408C00053087D
:10012800BF008031CF208031CE285708840058087E
:1001380085000008CF00D0015008003A0319A5280F
:10014800AA284F08783A03198D28AA2820004D08B4
:10015800860087010130810741310318810ACE28C2
:100168004D0886008701403FCF00413FD0004F082F
:100178008400500885000008D100D2015108A2006F
:100188005208A3004C08A5004B08A4008131502157
:100198008031AA2808002000EC1FD328D428D928A9
:1001A8000130C6000030C700DD286C08C7006B08A6
:1001B800C6007908C3007808C2001F30C8000030A4
:1001C800C9002100C5011E29FF302000C807FF30E3
:1001D800C93D3F080F39CA000A304A02031CF528F6
:1001E800F628FE284A08573EC4000030031801309C
:1001F800C50005294A08303EC40000300318013004
:10020800C5004408CA004808A63E860087014A0877
:100218008100FF30C607FF30C73DFF30C207FF30FF
:10022800C33D3F0E0F39BF00400EF039BF04400EEA
:100238000F39C00020004908803AC10080304102CF
:10024800031D282902304802031C2B292C29402988
:1002580020003F084004031D32293329E8284708B5
:10026800803AC10080304102031D3C29013046021A
:1002780003183F294029E82820003E08B4003D081B
:10028800B3004808A63EB5004308B7004208B600C8
:100298008131F82180310800200024082504031941
:1002A800562957295D2924082504031D5C295D2941
:1002B800622922088331F6238131AE292408860079
:1002C8002508870049311600010403196C296D2996
:1002D8008D2924088600250887004931403FA6005B
:1002E800413FA70024088600250887004231403F87
:1002F800A800413FA9002908803AAA002708803AA7
:100308002A02031D89292608280203188C298D2909
:10031800AE292000240886002508870042312408D9
:10032800840025088500403F0007A6000131413FB1
:10033800003DA700260886002708870022088100BC
:1003480024088600250887004231013081074131A1
:100358000318810A08002000EA0008306A0203181E
:10036800B629B729C8290130E7006A0ABC29E73548
:10037800890BBB2967082100CA00F0302000E7007C
:1003880067082100C905EF292100CA014908F03989
:100398002000E9009B30E1008330E2006908E700B3
:1003A800E8016708E3006808E40083317A238131B3
:1003B80001302000E7006A08F83E890AE429E73599
:1003C800890BE32967082100C90020006908E700B4
:1003D80067082100C90420006608CC3E8600870112
:1003E80001082100CB0008002000B71BFC29FD29CB
:1003F800022A3708BC003608BB00042ABB01BC012E
:10040800B901BA01182A20302000A2000030A30048
:100418003408A5003308A40081315021813101300E
:100428002000B9070030BA3D3A08803AB8003C08C5
:10043800803A3802031D222A3B083902031C252A68
:10044800262A072A20003408AC003308AB003508F8
:100458008231572281310800F3007308F4004A2AD8
:100468007408860087010108240091002000911D6E
:100478003E2A3F2A3A2A91117408860087012400EF
:10048800110881000130F2007208F4070130F0020F
:100498000030F13B700A031D552A710A031D552AC5
:1004A800562A342A08002000B200B001B1016F2A90
:1004B8002F08AD00AE012D08A2002E08A3002C08BD
:1004C800A5002B08A4008131502182310130200081
:1004D800B0070030B13D30083207AD002D08860066
:1004E80087010108AF002F08031D7B2A7C2A5C2A9C
:1004F8000800083023009F0090309D0024309E00A3
:1005080040309B0003309C0000302000A0000030E9
:10051800A1008331E423823100302000A0000030A4
:10052800A1008331DB23823100302000A00000309D
:10053800A1008331ED2382312000EE010800F5008F
:100548007008F7007508F600BB2A7708860087014F
:100558000108F4000130F3007308F70776088600F5
:100568008701740881000130F3007308F607013031
:10057800F1020030F23B710A031DC62A720A031DFC
:10058800C62AC72AA92A0800031022008D1F0314AF
:100598000318CF2AD22A22008D17D42A22008D13BD
:1005A800C930F0000330F1000030F200C63082316B
:1005B800A322823122008D120330F0000030F100B6
:1005C800C63082313022823122008D160800200088
:1005D8005C08E0005B08DF00FC2A5A08CC005908D8
:1005E800CB005F30CD005D08CE0080313D208231E8
:1005F80020005F088400600885001200031D052B99
:10060800062BF12AD901DA01080022008C018D019C
:100618008E013F3021008C0010308D007F308E001D
:100628004D3023008E0020308D0017308C002400C0
:100638008D018C018E0121009517843022009D00C8
:100648009E010800200099013C309700B0309600C8
:1006580011101708FD001608FC00210011141330B2
:100668002000A0000430A1008431092483313130F6
:100678002000980008008331562383318B170B170D
:10068800C8302000A0000230A10084310924833141
:1006980003302000E6000B308131AF2183314C2B31
:1006A800803119288331A32383318331092383318E
:1006B8008331AF23833184310F248331833126235F
:1006C800833182317D22833108002000181D6D2B73
:1006D8006E2B752B18107108970070089600181467
:1006E800792B710897007008960008006330200085
:1006F800E5000030D900DA006208DC006108DB00A0
:100708006530DD008231EB228331080020001110B2
:100718007D08F1007C08F00083316923833183313F
:10072800BB2383310800023440340134003474346C
:1007380065346D34703420342534783400344030D6
:1007480024009400023095000130920021000D131E
:1007580024009516080070302100990098012200A5
:10076800960121001A1FB92BBA2BB52B08007A085D
:100778007B040319C02BC12BC62B7B088A007A087F
:100788000A00833108007D344134DC34D534E13447
:10079800B534BD345134FD34F5342000A000111EA9
:1007A800D62BD72BD32B200823009A000800200033
:1007B80021082100A300200020082100A200080031
:1007C800200021082100A500200020082100A40005
:1007D8000800200021082100A10020002008210095
:1007E800A00008002000A10021088331D123833113
:1007F8000800FE0012001E00FE0BFE2B00346400F1
:1008080080010131890B042C003420002108FB00F1
:100818002008FA0008001630210097000800080098
:020000040001F9
:04000E00E43FFF3F8D
:00000001FF
